{
  "_format": "hh-sol-artifact-1",
  "contractName": "NFL",
  "sourceName": "contracts/NFL.sol",
  "abi": [
    {
      "inputs": [
        {
          "internalType": "contract IERC20",
          "name": "_token",
          "type": "address"
        },
        {
          "internalType": "contract IERC721",
          "name": "_nft",
          "type": "address"
        },
        {
          "internalType": "contract IPriceFeed",
          "name": "_priceFeed",
          "type": "address"
        },
        {
          "internalType": "contract ILiquidator",
          "name": "_liquidator",
          "type": "address"
        }
      ],
      "stateMutability": "nonpayable",
      "type": "constructor"
    },
    {
      "inputs": [
        {
          "internalType": "uint256",
          "name": "amount",
          "type": "uint256"
        }
      ],
      "name": "borrow",
      "outputs": [],
      "stateMutability": "nonpayable",
      "type": "function"
    },
    {
      "inputs": [
        {
          "internalType": "address",
          "name": "user",
          "type": "address"
        }
      ],
      "name": "collateralizationRatio",
      "outputs": [
        {
          "internalType": "uint256",
          "name": "",
          "type": "uint256"
        }
      ],
      "stateMutability": "view",
      "type": "function"
    },
    {
      "inputs": [
        {
          "internalType": "address",
          "name": "",
          "type": "address"
        }
      ],
      "name": "debtByUser",
      "outputs": [
        {
          "internalType": "uint256",
          "name": "",
          "type": "uint256"
        }
      ],
      "stateMutability": "view",
      "type": "function"
    },
    {
      "inputs": [
        {
          "internalType": "uint256",
          "name": "amount",
          "type": "uint256"
        }
      ],
      "name": "deposit",
      "outputs": [],
      "stateMutability": "nonpayable",
      "type": "function"
    },
    {
      "inputs": [
        {
          "internalType": "address",
          "name": "",
          "type": "address"
        }
      ],
      "name": "depositByUser",
      "outputs": [
        {
          "internalType": "uint256",
          "name": "",
          "type": "uint256"
        }
      ],
      "stateMutability": "view",
      "type": "function"
    },
    {
      "inputs": [
        {
          "internalType": "uint256",
          "name": "tokenId",
          "type": "uint256"
        }
      ],
      "name": "depositNFT",
      "outputs": [],
      "stateMutability": "nonpayable",
      "type": "function"
    },
    {
      "inputs": [],
      "name": "liquidate",
      "outputs": [],
      "stateMutability": "nonpayable",
      "type": "function"
    },
    {
      "inputs": [],
      "name": "liquidator",
      "outputs": [
        {
          "internalType": "contract ILiquidator",
          "name": "",
          "type": "address"
        }
      ],
      "stateMutability": "view",
      "type": "function"
    },
    {
      "inputs": [],
      "name": "nft",
      "outputs": [
        {
          "internalType": "contract IERC721",
          "name": "",
          "type": "address"
        }
      ],
      "stateMutability": "view",
      "type": "function"
    },
    {
      "inputs": [
        {
          "internalType": "address",
          "name": "user",
          "type": "address"
        }
      ],
      "name": "nftsOf",
      "outputs": [
        {
          "internalType": "uint256[]",
          "name": "",
          "type": "uint256[]"
        }
      ],
      "stateMutability": "view",
      "type": "function"
    },
    {
      "inputs": [],
      "name": "priceFeed",
      "outputs": [
        {
          "internalType": "contract IPriceFeed",
          "name": "",
          "type": "address"
        }
      ],
      "stateMutability": "view",
      "type": "function"
    },
    {
      "inputs": [],
      "name": "token",
      "outputs": [
        {
          "internalType": "contract IERC20",
          "name": "",
          "type": "address"
        }
      ],
      "stateMutability": "view",
      "type": "function"
    },
    {
      "inputs": [
        {
          "internalType": "address",
          "name": "user",
          "type": "address"
        }
      ],
      "name": "totalCollateral",
      "outputs": [
        {
          "internalType": "uint256",
          "name": "balance",
          "type": "uint256"
        }
      ],
      "stateMutability": "view",
      "type": "function"
    },
    {
      "inputs": [
        {
          "internalType": "uint256",
          "name": "amount",
          "type": "uint256"
        }
      ],
      "name": "withdraw",
      "outputs": [],
      "stateMutability": "nonpayable",
      "type": "function"
    },
    {
      "inputs": [
        {
          "internalType": "uint256",
          "name": "tokenId",
          "type": "uint256"
        }
      ],
      "name": "withdrawNFT",
      "outputs": [],
      "stateMutability": "nonpayable",
      "type": "function"
    }
  ],
  "bytecode": "0x608060405234801561001057600080fd5b50604051620012443803806200124483398101604081905261003191610084565b600080546001600160a01b039586166001600160a01b03199182161790915560018054948616948216949094179093556002805492851692841692909217909155600380549190931691161790556100fa565b60008060008060808587031215610099578384fd5b84516100a4816100e2565b60208601519094506100b5816100e2565b60408601519093506100c6816100e2565b60608601519092506100d7816100e2565b939692955090935050565b6001600160a01b03811681146100f757600080fd5b50565b61113a806200010a6000396000f3fe608060405234801561001057600080fd5b50600436106100f55760003560e01c80638931f51611610097578063c5ebeaec11610066578063c5ebeaec146101c4578063d2e7a247146101d7578063e91a7ca6146101f7578063fc0c546a1461020a576100f5565b80638931f51614610178578063ac6bb5451461018b578063b6b55f251461019e578063bc05b062146101b1576100f5565b80634046ebae116100d35780634046ebae1461012a57806347ccca0214610148578063741bef1a146101505780637e059b2214610158576100f5565b8063023245d7146100fa57806328a070251461010f5780632e1a7d4d14610117575b600080fd5b61010d610108366004610d06565b610212565b005b61010d6102cb565b61010d610125366004610d06565b610408565b610132610496565b60405161013f9190610dd3565b60405180910390f35b6101326104a5565b6101326104b4565b61016b610166366004610cbf565b6104c3565b60405161013f9190611038565b61016b610186366004610cbf565b61059b565b61016b610199366004610cbf565b6105ad565b61010d6101ac366004610d06565b6105bf565b61016b6101bf366004610cbf565b610600565b61010d6101d2366004610d06565b610641565b6101ea6101e5366004610cbf565b610687565b60405161013f9190610d8f565b61010d610205366004610d06565b61075d565b6101326107e1565b33600090815260046020526040902061022b90826107f0565b15610297576001546040516323b872dd60e01b81526001600160a01b03909116906323b872dd9061026490309033908690600401610d52565b600060405180830381600087803b15801561027e57600080fd5b505af1158015610292573d6000803e3d6000fd5b505050505b60026102a233610600565b116102c85760405162461bcd60e51b81526004016102bf90610e5c565b60405180910390fd5b50565b60026102d633610600565b106102f35760405162461bcd60e51b81526004016102bf90610fad565b3360009081526004602052604081209061030c82610805565b90506000811161032e5760405162461bcd60e51b81526004016102bf90610f08565b600061033b600183611079565b90505b600261034933610600565b101561040357600061035b8483610810565b6003546040516301057c4960e61b81529192506000916001600160a01b039091169063415f124090610391908590600401611038565b602060405180830381600087803b1580156103ab57600080fd5b505af11580156103bf573d6000803e3d6000fd5b505050506040513d601f19601f820116820180604052508101906103e39190610d1e565b90506103ee8161081c565b505080806103fb906110bc565b91505061033e565b505050565b600081116104285760405162461bcd60e51b81526004016102bf90610ed1565b33600090815260066020526040902054610443908290611079565b3360008181526006602052604090209190915560029061046290610600565b1161047f5760405162461bcd60e51b81526004016102bf90610e5c565b6000546102c8906001600160a01b0316338361085e565b6003546001600160a01b031681565b6001546001600160a01b031681565b6002546001600160a01b031681565b6001600160a01b038116600090815260046020526040812081906104e690610805565b905080156105715760025460405163012eab3160e21b81526001600160a01b03909116906304baacc49061051e908490600401611038565b60206040518083038186803b15801561053657600080fd5b505afa15801561054a573d6000803e3d6000fd5b505050506040513d601f19601f8201168201806040525081019061056e9190610d1e565b91505b6001600160a01b0383166000908152600660205260409020546105949083611041565b9392505050565b60056020526000908152604090205481565b60066020526000908152604090205481565b600081116105df5760405162461bcd60e51b81526004016102bf90610f3f565b6000546105f7906001600160a01b03163330846108b4565b6102c88161081c565b33600090815260056020526040812054806106205760001991505061063c565b600061062b846104c3565b90506106378282611059565b925050505b919050565b3360009081526005602052604090205461065c908290611041565b336000818152600560205260408120929092559054610297916001600160a01b03909116908361085e565b6001600160a01b03811660009081526004602052604081206060916106ab82610805565b905060008167ffffffffffffffff8111156106d657634e487b7160e01b600052604160045260246000fd5b6040519080825280602002602001820160405280156106ff578160200160208202803683370190505b50905060005b82811015610754576107178482610810565b82828151811061073757634e487b7160e01b600052603260045260246000fd5b60209081029190910101528061074c816110d3565b915050610705565b50949350505050565b6001546040516323b872dd60e01b81526001600160a01b03909116906323b872dd9061079190339030908690600401610d52565b600060405180830381600087803b1580156107ab57600080fd5b505af11580156107bf573d6000803e3d6000fd5b50503360009081526004602052604090206107dd92509050826108db565b5050565b6000546001600160a01b031681565b60006107fc83836108e7565b90505b92915050565b60006107ff82610a04565b60006107fc8383610a08565b600061082782610a61565b905080156107dd573360009081526006602052604090205461084a908290611041565b336000908152600660205260409020555050565b6104038363a9059cbb60e01b848460405160240161087d929190610d76565b60408051601f198184030181529190526020810180516001600160e01b03166001600160e01b031990931692909217909152610ab8565b6108d5846323b872dd60e01b85858560405160240161087d93929190610d52565b50505050565b60006107fc8383610b47565b600081815260018301602052604081205480156109fa57600061090b600183611079565b855490915060009061091f90600190611079565b9050600086600001828154811061094657634e487b7160e01b600052603260045260246000fd5b906000526020600020015490508087600001848154811061097757634e487b7160e01b600052603260045260246000fd5b60009182526020909120015561098e836001611041565b600082815260018901602052604090205586548790806109be57634e487b7160e01b600052603160045260246000fd5b600190038181906000526020600020016000905590558660010160008781526020019081526020016000206000905560019450505050506107ff565b60009150506107ff565b5490565b81546000908210610a2b5760405162461bcd60e51b81526004016102bf90610e1a565b826000018281548110610a4e57634e487b7160e01b600052603260045260246000fd5b9060005260206000200154905092915050565b3360009081526005602052604081205482811115610a9857610a838382611079565b33600090815260056020526040902055610ab2565b336000908152600560205260408120556105948184611079565b50919050565b6000610b0d826040518060400160405280602081526020017f5361666545524332303a206c6f772d6c6576656c2063616c6c206661696c6564815250856001600160a01b0316610b919092919063ffffffff16565b8051909150156104035780806020019051810190610b2b9190610ce6565b6104035760405162461bcd60e51b81526004016102bf90610fee565b6000610b538383610ba8565b610b89575081546001818101845560008481526020808220909301849055845484825282860190935260409020919091556107ff565b5060006107ff565b6060610ba08484600085610bc0565b949350505050565b60009081526001919091016020526040902054151590565b606082471015610be25760405162461bcd60e51b81526004016102bf90610e8b565b610beb85610c80565b610c075760405162461bcd60e51b81526004016102bf90610f76565b600080866001600160a01b03168587604051610c239190610d36565b60006040518083038185875af1925050503d8060008114610c60576040519150601f19603f3d011682016040523d82523d6000602084013e610c65565b606091505b5091509150610c75828286610c86565b979650505050505050565b3b151590565b60608315610c95575081610594565b825115610ca55782518084602001fd5b8160405162461bcd60e51b81526004016102bf9190610de7565b600060208284031215610cd0578081fd5b81356001600160a01b0381168114610594578182fd5b600060208284031215610cf7578081fd5b81518015158114610594578182fd5b600060208284031215610d17578081fd5b5035919050565b600060208284031215610d2f578081fd5b5051919050565b60008251610d48818460208701611090565b9190910192915050565b6001600160a01b039384168152919092166020820152604081019190915260600190565b6001600160a01b03929092168252602082015260400190565b6020808252825182820181905260009190848201906040850190845b81811015610dc757835183529284019291840191600101610dab565b50909695505050505050565b6001600160a01b0391909116815260200190565b6000602082528251806020840152610e06816040850160208701611090565b601f01601f19169190910160400192915050565b60208082526022908201527f456e756d657261626c655365743a20696e646578206f7574206f6620626f756e604082015261647360f01b606082015260800190565b602080825260159082015274086ded8d8c2e8cae4c2d840dcdee840cadcdeeaced605b1b604082015260600190565b60208082526026908201527f416464726573733a20696e73756666696369656e742062616c616e636520666f6040820152651c8818d85b1b60d21b606082015260800190565b6020808252601f908201527f5769746864726177206d7573742062652067726561746572207468616e203000604082015260600190565b6020808252601f908201527f43616e6e6f74206c697175696461746520656d70747920706f736974696f6e00604082015260600190565b6020808252601e908201527f4465706f736974206d7573742062652067726561746572207468616e20300000604082015260600190565b6020808252601d908201527f416464726573733a2063616c6c20746f206e6f6e2d636f6e7472616374000000604082015260600190565b60208082526021908201527f43616e6e6f74206c6971756964617465206865616c74687920706f736974696f6040820152603760f91b606082015260800190565b6020808252602a908201527f5361666545524332303a204552433230206f7065726174696f6e20646964206e6040820152691bdd081cdd58d8d9595960b21b606082015260800190565b90815260200190565b60008219821115611054576110546110ee565b500190565b60008261107457634e487b7160e01b81526012600452602481fd5b500490565b60008282101561108b5761108b6110ee565b500390565b60005b838110156110ab578181015183820152602001611093565b838111156108d55750506000910152565b6000816110cb576110cb6110ee565b506000190190565b60006000198214156110e7576110e76110ee565b5060010190565b634e487b7160e01b600052601160045260246000fdfea2646970667358221220b49229640e1880fba876dd195d78017ccb1ef6803c14c5c4f012b3386c6ca0e464736f6c63430008000033",
  "linkReferences": {},
  "deployedLinkReferences": {}
}